{
    "_format": "hh-sol-artifact-1",
    "contractName": "TheORB",
    "sourceName": "contracts/TheORB.sol",
    "abi": [
        {
            "inputs": [],
            "stateMutability": "nonpayable",
            "type": "constructor"
        },
        {
            "anonymous": false,
            "inputs": [
                {
                    "indexed": true,
                    "internalType": "uint256",
                    "name": "timeAllStakingUnlocked",
                    "type": "uint256"
                }
            ],
            "name": "AllStakingUnlocked",
            "type": "event"
        },
        {
            "anonymous": false,
            "inputs": [
                {
                    "indexed": true,
                    "internalType": "address",
                    "name": "owner",
                    "type": "address"
                },
                {
                    "indexed": true,
                    "internalType": "address",
                    "name": "spender",
                    "type": "address"
                },
                {
                    "indexed": false,
                    "internalType": "uint256",
                    "name": "value",
                    "type": "uint256"
                }
            ],
            "name": "Approval",
            "type": "event"
        },
        {
            "anonymous": false,
            "inputs": [
                {
                    "indexed": false,
                    "internalType": "string",
                    "name": "message",
                    "type": "string"
                }
            ],
            "name": "ContractDeployed",
            "type": "event"
        },
        {
            "anonymous": false,
            "inputs": [
                {
                    "indexed": false,
                    "internalType": "uint256",
                    "name": "BNBprovidedToPancakeSwap",
                    "type": "uint256"
                },
                {
                    "indexed": false,
                    "internalType": "uint256",
                    "name": "ORBprovidedToPancakeSwap",
                    "type": "uint256"
                },
                {
                    "indexed": false,
                    "internalType": "uint256",
                    "name": "timePresaleEndedAndLiquidityProvided",
                    "type": "uint256"
                }
            ],
            "name": "EndedPresaleProvidedLiquidity",
            "type": "event"
        },
        {
            "anonymous": false,
            "inputs": [
                {
                    "indexed": true,
                    "internalType": "address",
                    "name": "accountMintedTo",
                    "type": "address"
                },
                {
                    "indexed": true,
                    "internalType": "uint256",
                    "name": "amountMinted",
                    "type": "uint256"
                }
            ],
            "name": "MintedORB",
            "type": "event"
        },
        {
            "anonymous": false,
            "inputs": [
                {
                    "indexed": true,
                    "internalType": "address",
                    "name": "stakerAddress",
                    "type": "address"
                },
                {
                    "indexed": true,
                    "internalType": "uint256",
                    "name": "amountOfORBstaked",
                    "type": "uint256"
                },
                {
                    "indexed": true,
                    "internalType": "uint256",
                    "name": "timeStaked",
                    "type": "uint256"
                }
            ],
            "name": "ORBstaked",
            "type": "event"
        },
        {
            "anonymous": false,
            "inputs": [
                {
                    "indexed": true,
                    "internalType": "address",
                    "name": "stakerAddress",
                    "type": "address"
                },
                {
                    "indexed": true,
                    "internalType": "uint256",
                    "name": "timeUnStaked",
                    "type": "uint256"
                }
            ],
            "name": "ORBunStaked",
            "type": "event"
        },
        {
            "anonymous": false,
            "inputs": [
                {
                    "indexed": true,
                    "internalType": "address",
                    "name": "previousOwner",
                    "type": "address"
                },
                {
                    "indexed": true,
                    "internalType": "address",
                    "name": "newOwner",
                    "type": "address"
                }
            ],
            "name": "OwnershipTransferred",
            "type": "event"
        },
        {
            "anonymous": false,
            "inputs": [
                {
                    "indexed": true,
                    "internalType": "address",
                    "name": "buyer",
                    "type": "address"
                },
                {
                    "indexed": false,
                    "internalType": "uint256",
                    "name": "amountORBpurchased",
                    "type": "uint256"
                },
                {
                    "indexed": false,
                    "internalType": "uint256",
                    "name": "amountBNBInJagerSold",
                    "type": "uint256"
                },
                {
                    "indexed": false,
                    "internalType": "uint256",
                    "name": "totalORBAmountPurchasedInPresaleInJager",
                    "type": "uint256"
                }
            ],
            "name": "PreSalePurchase",
            "type": "event"
        },
        {
            "anonymous": false,
            "inputs": [
                {
                    "indexed": true,
                    "internalType": "address",
                    "name": "from",
                    "type": "address"
                },
                {
                    "indexed": true,
                    "internalType": "address",
                    "name": "to",
                    "type": "address"
                },
                {
                    "indexed": false,
                    "internalType": "uint256",
                    "name": "value",
                    "type": "uint256"
                }
            ],
            "name": "Transfer",
            "type": "event"
        },
        {
            "inputs": [
                {
                    "internalType": "address",
                    "name": "",
                    "type": "address"
                }
            ],
            "name": "ORBAmountPurchasedInPresaleInJager",
            "outputs": [
                {
                    "internalType": "uint256",
                    "name": "",
                    "type": "uint256"
                }
            ],
            "stateMutability": "view",
            "type": "function"
        },
        {
            "inputs": [
                {
                    "internalType": "address",
                    "name": "owner",
                    "type": "address"
                },
                {
                    "internalType": "address",
                    "name": "spender",
                    "type": "address"
                }
            ],
            "name": "allowance",
            "outputs": [
                {
                    "internalType": "uint256",
                    "name": "",
                    "type": "uint256"
                }
            ],
            "stateMutability": "view",
            "type": "function"
        },
        {
            "inputs": [
                {
                    "internalType": "address",
                    "name": "",
                    "type": "address"
                },
                {
                    "internalType": "address",
                    "name": "",
                    "type": "address"
                }
            ],
            "name": "allowancesOfToken",
            "outputs": [
                {
                    "internalType": "uint256",
                    "name": "",
                    "type": "uint256"
                }
            ],
            "stateMutability": "view",
            "type": "function"
        },
        {
            "inputs": [
                {
                    "internalType": "address",
                    "name": "",
                    "type": "address"
                }
            ],
            "name": "amountORBstaked",
            "outputs": [
                {
                    "internalType": "uint256",
                    "name": "",
                    "type": "uint256"
                }
            ],
            "stateMutability": "view",
            "type": "function"
        },
        {
            "inputs": [
                {
                    "internalType": "address",
                    "name": "spender",
                    "type": "address"
                },
                {
                    "internalType": "uint256",
                    "name": "amount",
                    "type": "uint256"
                }
            ],
            "name": "approve",
            "outputs": [
                {
                    "internalType": "bool",
                    "name": "",
                    "type": "bool"
                }
            ],
            "stateMutability": "nonpayable",
            "type": "function"
        },
        {
            "inputs": [
                {
                    "internalType": "address",
                    "name": "account",
                    "type": "address"
                }
            ],
            "name": "balanceOf",
            "outputs": [
                {
                    "internalType": "uint256",
                    "name": "",
                    "type": "uint256"
                }
            ],
            "stateMutability": "view",
            "type": "function"
        },
        {
            "inputs": [],
            "name": "calculateAPY",
            "outputs": [
                {
                    "internalType": "uint256",
                    "name": "",
                    "type": "uint256"
                }
            ],
            "stateMutability": "pure",
            "type": "function"
        },
        {
            "inputs": [],
            "name": "calculateThreeDayRate",
            "outputs": [
                {
                    "internalType": "uint256",
                    "name": "",
                    "type": "uint256"
                }
            ],
            "stateMutability": "pure",
            "type": "function"
        },
        {
            "inputs": [],
            "name": "creationDateOfcContract",
            "outputs": [
                {
                    "internalType": "uint256",
                    "name": "",
                    "type": "uint256"
                }
            ],
            "stateMutability": "view",
            "type": "function"
        },
        {
            "inputs": [],
            "name": "deadAddress",
            "outputs": [
                {
                    "internalType": "address",
                    "name": "",
                    "type": "address"
                }
            ],
            "stateMutability": "view",
            "type": "function"
        },
        {
            "inputs": [],
            "name": "decimals",
            "outputs": [
                {
                    "internalType": "uint8",
                    "name": "",
                    "type": "uint8"
                }
            ],
            "stateMutability": "view",
            "type": "function"
        },
        {
            "inputs": [
                {
                    "internalType": "address",
                    "name": "spender",
                    "type": "address"
                },
                {
                    "internalType": "uint256",
                    "name": "subtractedValue",
                    "type": "uint256"
                }
            ],
            "name": "decreaseAllowance",
            "outputs": [
                {
                    "internalType": "bool",
                    "name": "",
                    "type": "bool"
                }
            ],
            "stateMutability": "nonpayable",
            "type": "function"
        },
        {
            "inputs": [],
            "name": "endPresaleProvideLiquidity",
            "outputs": [],
            "stateMutability": "nonpayable",
            "type": "function"
        },
        {
            "inputs": [],
            "name": "getOwner",
            "outputs": [
                {
                    "internalType": "address",
                    "name": "",
                    "type": "address"
                }
            ],
            "stateMutability": "view",
            "type": "function"
        },
        {
            "inputs": [
                {
                    "internalType": "address",
                    "name": "",
                    "type": "address"
                }
            ],
            "name": "hasStakedORB",
            "outputs": [
                {
                    "internalType": "bool",
                    "name": "",
                    "type": "bool"
                }
            ],
            "stateMutability": "view",
            "type": "function"
        },
        {
            "inputs": [
                {
                    "internalType": "address",
                    "name": "",
                    "type": "address"
                }
            ],
            "name": "hasUnStakedORB",
            "outputs": [
                {
                    "internalType": "bool",
                    "name": "",
                    "type": "bool"
                }
            ],
            "stateMutability": "view",
            "type": "function"
        },
        {
            "inputs": [
                {
                    "internalType": "uint256",
                    "name": "amountOfOrbStaked",
                    "type": "uint256"
                }
            ],
            "name": "howMuchORBafterStaking3days",
            "outputs": [
                {
                    "internalType": "uint256",
                    "name": "",
                    "type": "uint256"
                }
            ],
            "stateMutability": "pure",
            "type": "function"
        },
        {
            "inputs": [
                {
                    "internalType": "address",
                    "name": "stakerAddress",
                    "type": "address"
                }
            ],
            "name": "howMuchORBhasBeenGeneratedSoFar",
            "outputs": [
                {
                    "internalType": "uint256",
                    "name": "",
                    "type": "uint256"
                }
            ],
            "stateMutability": "view",
            "type": "function"
        },
        {
            "inputs": [
                {
                    "internalType": "address",
                    "name": "spender",
                    "type": "address"
                },
                {
                    "internalType": "uint256",
                    "name": "addedValue",
                    "type": "uint256"
                }
            ],
            "name": "increaseAllowance",
            "outputs": [
                {
                    "internalType": "bool",
                    "name": "",
                    "type": "bool"
                }
            ],
            "stateMutability": "nonpayable",
            "type": "function"
        },
        {
            "inputs": [],
            "name": "isAllStakingUnlocked",
            "outputs": [
                {
                    "internalType": "bool",
                    "name": "",
                    "type": "bool"
                }
            ],
            "stateMutability": "view",
            "type": "function"
        },
        {
            "inputs": [],
            "name": "isApproveEnabled",
            "outputs": [
                {
                    "internalType": "bool",
                    "name": "",
                    "type": "bool"
                }
            ],
            "stateMutability": "view",
            "type": "function"
        },
        {
            "inputs": [],
            "name": "isPresaleEnabled",
            "outputs": [
                {
                    "internalType": "bool",
                    "name": "",
                    "type": "bool"
                }
            ],
            "stateMutability": "view",
            "type": "function"
        },
        {
            "inputs": [],
            "name": "name",
            "outputs": [
                {
                    "internalType": "string",
                    "name": "",
                    "type": "string"
                }
            ],
            "stateMutability": "view",
            "type": "function"
        },
        {
            "inputs": [],
            "name": "owner",
            "outputs": [
                {
                    "internalType": "address",
                    "name": "",
                    "type": "address"
                }
            ],
            "stateMutability": "view",
            "type": "function"
        },
        {
            "inputs": [],
            "name": "pancakeswapPair",
            "outputs": [
                {
                    "internalType": "address",
                    "name": "",
                    "type": "address"
                }
            ],
            "stateMutability": "view",
            "type": "function"
        },
        {
            "inputs": [],
            "name": "pancakeswapRouter",
            "outputs": [
                {
                    "internalType": "contract IPancakeRouter02",
                    "name": "",
                    "type": "address"
                }
            ],
            "stateMutability": "view",
            "type": "function"
        },
        {
            "inputs": [],
            "name": "preSaleRate",
            "outputs": [
                {
                    "internalType": "uint256",
                    "name": "",
                    "type": "uint256"
                }
            ],
            "stateMutability": "view",
            "type": "function"
        },
        {
            "inputs": [
                {
                    "internalType": "uint256",
                    "name": "keyCode",
                    "type": "uint256"
                }
            ],
            "name": "presaleBuy",
            "outputs": [],
            "stateMutability": "payable",
            "type": "function"
        },
        {
            "inputs": [],
            "name": "renounceOwnership",
            "outputs": [],
            "stateMutability": "nonpayable",
            "type": "function"
        },
        {
            "inputs": [],
            "name": "routerAddressForDEX",
            "outputs": [
                {
                    "internalType": "address",
                    "name": "",
                    "type": "address"
                }
            ],
            "stateMutability": "view",
            "type": "function"
        },
        {
            "inputs": [
                {
                    "internalType": "uint256",
                    "name": "amountOfORBtoStake",
                    "type": "uint256"
                }
            ],
            "name": "stakeORB",
            "outputs": [],
            "stateMutability": "nonpayable",
            "type": "function"
        },
        {
            "inputs": [
                {
                    "internalType": "address",
                    "name": "stakerAddress",
                    "type": "address"
                }
            ],
            "name": "stakeUnlockTime",
            "outputs": [
                {
                    "internalType": "uint256",
                    "name": "",
                    "type": "uint256"
                }
            ],
            "stateMutability": "view",
            "type": "function"
        },
        {
            "inputs": [],
            "name": "symbol",
            "outputs": [
                {
                    "internalType": "string",
                    "name": "",
                    "type": "string"
                }
            ],
            "stateMutability": "view",
            "type": "function"
        },
        {
            "inputs": [],
            "name": "timePresaleEndedAndLiquidityProvided",
            "outputs": [
                {
                    "internalType": "uint256",
                    "name": "",
                    "type": "uint256"
                }
            ],
            "stateMutability": "view",
            "type": "function"
        },
        {
            "inputs": [],
            "name": "timeStakingIsEnabled",
            "outputs": [
                {
                    "internalType": "uint256",
                    "name": "",
                    "type": "uint256"
                }
            ],
            "stateMutability": "view",
            "type": "function"
        },
        {
            "inputs": [
                {
                    "internalType": "address",
                    "name": "",
                    "type": "address"
                }
            ],
            "name": "timeStartedStaking",
            "outputs": [
                {
                    "internalType": "uint256",
                    "name": "",
                    "type": "uint256"
                }
            ],
            "stateMutability": "view",
            "type": "function"
        },
        {
            "inputs": [],
            "name": "totalSupply",
            "outputs": [
                {
                    "internalType": "uint256",
                    "name": "",
                    "type": "uint256"
                }
            ],
            "stateMutability": "view",
            "type": "function"
        },
        {
            "inputs": [
                {
                    "internalType": "address",
                    "name": "recipient",
                    "type": "address"
                },
                {
                    "internalType": "uint256",
                    "name": "amount",
                    "type": "uint256"
                }
            ],
            "name": "transfer",
            "outputs": [
                {
                    "internalType": "bool",
                    "name": "",
                    "type": "bool"
                }
            ],
            "stateMutability": "nonpayable",
            "type": "function"
        },
        {
            "inputs": [
                {
                    "internalType": "address",
                    "name": "sender",
                    "type": "address"
                },
                {
                    "internalType": "address",
                    "name": "recipient",
                    "type": "address"
                },
                {
                    "internalType": "uint256",
                    "name": "amount",
                    "type": "uint256"
                }
            ],
            "name": "transferFrom",
            "outputs": [
                {
                    "internalType": "bool",
                    "name": "",
                    "type": "bool"
                }
            ],
            "stateMutability": "nonpayable",
            "type": "function"
        },
        {
            "inputs": [
                {
                    "internalType": "address",
                    "name": "newOwner",
                    "type": "address"
                }
            ],
            "name": "transferOwnership",
            "outputs": [],
            "stateMutability": "nonpayable",
            "type": "function"
        },
        {
            "inputs": [],
            "name": "unStakeORB",
            "outputs": [],
            "stateMutability": "nonpayable",
            "type": "function"
        },
        {
            "inputs": [],
            "name": "unlockAllStaking",
            "outputs": [],
            "stateMutability": "nonpayable",
            "type": "function"
        },
        {
            "stateMutability": "payable",
            "type": "receive"
        }
    ],
    "bytecode": "0x60806040523480156200001157600080fd5b50600080546001600160a01b031916339081178255604051909182916000805160206200288f833981519152908290a350600e80546001600160a01b0319169055604080518082019091526007808252662a34329027a92160c91b602090920191825233916200008591600491906200050f565b506040805180820190915260038082526227a92160e91b6020909201918252620000b2916005916200050f565b506006805460ff1916600917905566038d7ea4c68000600781905530600090815260086020526040808220839055516001600160a01b038416927fddf252ad1be2c89b69c2b068fc378daa952ba7f163c4a11628f55a4df523b3ef916200011b91815260200190565b60405180910390a36040516001600160a01b038216906000906000805160206200288f833981519152908290a3600380546001600160a01b031916737a250d5630b4cf539739df2c5dacb4c659f2488d9081179091556040805163c45a015560e01b81529051829163c45a0155916004808301926020929190829003018186803b158015620001a957600080fd5b505afa158015620001be573d6000803e3d6000fd5b505050506040513d601f19601f82011682018060405250810190620001e49190620005b5565b6001600160a01b031663c9c6539630836001600160a01b031663ad5c46486040518163ffffffff1660e01b815260040160206040518083038186803b1580156200022d57600080fd5b505afa15801562000242573d6000803e3d6000fd5b505050506040513d601f19601f82011682018060405250810190620002689190620005b5565b6040516001600160e01b031960e085901b1681526001600160a01b03928316600482015291166024820152604401602060405180830381600087803b158015620002b157600080fd5b505af1158015620002c6573d6000803e3d6000fd5b505050506040513d601f19601f82011682018060405250810190620002ec9190620005b5565b600280546001600160a01b03199081166001600160a01b03938416179091556001805490911691831691909117905564e8d4a51000651b48eb57e000650574fbde60006000620003498383620004ec602090811b62001a3017901c565b30600090815260086020908152604090912054919250620003769190839062001a3c62000501821b17901c565b3060009081526008602090815260408220929092557359ed330ca05bffbabd4fce758234c71f8f08cbd990527f3f1ffc0345adfc12ac231cfb04e5f1278f0e8e0ac403d01521f10a6279080051859055620003de908590849062001a30620004ec821b17901c565b60086020527f919911c3284d861ab6e0228b5d956de085835e9cfc33188e3f4a8475dfde21ef55732b30eca9e19b480533db8ec37fa2fac035e320826000527f5291d03bdf157eacbe2b075b90969eb87cc48dee29281db7508143d0f162be58849055600e805460ff60a01b1916905542600f556102586016556104b06017556107086018556011805460ff199081166001179091556103e86010556015805490911690556040517f0d0ebe685f2c334e83847eb5e89a8d3d8919558c63ef37cf7fc3e7b86dd88b6d90620004d890602080825260119082015270546865204f5242204c61756e636865642160781b604082015260600190565b60405180910390a150505050505062000666565b6000620004fa8284620005de565b9392505050565b6000620004fa8284620005f9565b8280546200051d9062000613565b90600052602060002090601f0160209004810192826200054157600085556200058c565b82601f106200055c57805160ff19168380011785556200058c565b828001600101855582156200058c579182015b828111156200058c5782518255916020019190600101906200056f565b506200059a9291506200059e565b5090565b5b808211156200059a57600081556001016200059f565b600060208284031215620005c7578081fd5b81516001600160a01b0381168114620004fa578182fd5b60008219821115620005f457620005f462000650565b500190565b6000828210156200060e576200060e62000650565b500390565b600181811c908216806200062857607f821691505b602082108114156200064a57634e487b7160e01b600052602260045260246000fd5b50919050565b634e487b7160e01b600052601160045260246000fd5b61221980620006766000396000f3fe6080604052600436106102555760003560e01c80638da5cb5b11610139578063a9059cbb116100b6578063db6754ed1161007a578063db6754ed146106e2578063dd62ed3e14610702578063e0f66fca14610748578063e1348f6514610762578063efbe389a14610783578063f2fde38b146107a357600080fd5b8063a9059cbb1461063c578063b22858811461065c578063c66e3f6414610689578063d3b282c71461069f578063d833dbe9146106cc57600080fd5b80639a418d56116100fd5780639a418d561461059a5780639d8f37e3146105ba578063a087a0c8146105cf578063a457c2d7146105fc578063a4f234be1461061c57600080fd5b80638da5cb5b146104c45780638dfb2dbc1461050d5780638f120ece1461052d57806395d89b41146105655780639717d7a41461057a57600080fd5b806361f11c1a116101d25780637e990e09116101965780637e990e091461046c578063815f7bbd14610481578063874cbaa914610494578063893d20e8146104c457806389977733146104e25780638b00a55a146104f857600080fd5b806361f11c1a146103c057806370a08231146103da578063715018a61461041057806371b72d1c146104275780637c3a122b1461043c57600080fd5b806323b872dd1161021957806323b872dd1461031157806327c8f835146103315780632a64830014610369578063313ce5671461037e57806339509351146103a057600080fd5b806303d7e38d1461026157806306fdde031461028a578063095ea7b3146102ac5780630fddd45f146102dc57806318160ddd146102fc57600080fd5b3661025c57005b600080fd5b34801561026d57600080fd5b5061027760135481565b6040519081526020015b60405180910390f35b34801561029657600080fd5b5061029f6107c3565b6040516102819190612029565b3480156102b857600080fd5b506102cc6102c7366004611fbb565b610855565b6040519015158152602001610281565b3480156102e857600080fd5b506102776102f7366004611fe4565b61086b565b34801561030857600080fd5b50600754610277565b34801561031d57600080fd5b506102cc61032c366004611f80565b610887565b34801561033d57600080fd5b50600e54610351906001600160a01b031681565b6040516001600160a01b039091168152602001610281565b34801561037557600080fd5b506102776108f0565b34801561038a57600080fd5b5060065460405160ff9091168152602001610281565b3480156103ac57600080fd5b506102cc6103bb366004611fbb565b61093b565b3480156103cc57600080fd5b506015546102cc9060ff1681565b3480156103e657600080fd5b506102776103f5366004611f34565b6001600160a01b031660009081526008602052604090205490565b34801561041c57600080fd5b50610425610971565b005b34801561043357600080fd5b506102776109ee565b34801561044857600080fd5b506102cc610457366004611f34565b600c6020526000908152604090205460ff1681565b34801561047857600080fd5b50610425610a16565b61042561048f366004611fe4565b610c2e565b3480156104a057600080fd5b506102cc6104af366004611f34565b600b6020526000908152604090205460ff1681565b3480156104d057600080fd5b506000546001600160a01b0316610351565b3480156104ee57600080fd5b50610277600f5481565b34801561050457600080fd5b506104256110f7565b34801561051957600080fd5b50610277610528366004611f34565b611229565b34801561053957600080fd5b50610277610548366004611f4e565b600960209081526000928352604080842090915290825290205481565b34801561057157600080fd5b5061029f611253565b34801561058657600080fd5b50610425610595366004611fe4565b611262565b3480156105a657600080fd5b506102776105b5366004611f34565b61163a565b3480156105c657600080fd5b506104256116bf565b3480156105db57600080fd5b506102776105ea366004611f34565b600a6020526000908152604090205481565b34801561060857600080fd5b506102cc610617366004611fbb565b6118ea565b34801561062857600080fd5b50600354610351906001600160a01b031681565b34801561064857600080fd5b506102cc610657366004611fbb565b611939565b34801561066857600080fd5b50610277610677366004611f34565b600d6020526000908152604090205481565b34801561069557600080fd5b5061027760145481565b3480156106ab57600080fd5b506102776106ba366004611f34565b60126020526000908152604090205481565b3480156106d857600080fd5b5061027760105481565b3480156106ee57600080fd5b50600154610351906001600160a01b031681565b34801561070e57600080fd5b5061027761071d366004611f4e565b6001600160a01b03918216600090815260096020908152604080832093909416825291909152205490565b34801561075457600080fd5b506011546102cc9060ff1681565b34801561076e57600080fd5b50600e546102cc90600160a01b900460ff1681565b34801561078f57600080fd5b50600254610351906001600160a01b031681565b3480156107af57600080fd5b506104256107be366004611f34565b611946565b6060600480546107d29061211f565b80601f01602080910402602001604051908101604052809291908181526020018280546107fe9061211f565b801561084b5780601f106108205761010080835404028352916020019161084b565b820191906000526020600020905b81548152906001019060200180831161082e57829003601f168201915b5050505050905090565b6000610862338484611a48565b50600192915050565b6000806108806108796109ee565b8490611be5565b9392505050565b6000610894848484611bf1565b6108e684336108e185604051806060016040528060288152602001612171602891396001600160a01b038a1660009081526009602090815260408083203384529091529020549190611dc4565b611a48565b5060019392505050565b6000620f424061016d826109048383611df0565b90506000610913826001611a30565b905060006109218285611be5565b90506000610930826001611a3c565b979650505050505050565b3360008181526009602090815260408083206001600160a01b038716845290915281205490916108629185906108e19086611a30565b6000546001600160a01b031633146109a45760405162461bcd60e51b815260040161099b9061207c565b60405180910390fd5b600080546040516001600160a01b03909116907f8be0079c531659141344cd1fd0a4f28419497f9722a3daafe3b4186f6b6457e0908390a3600080546001600160a01b0319169055565b600080610a1061016d610a0a6003610a046108f0565b90611be5565b90611df0565b92915050565b6000546001600160a01b03163314610a405760405162461bcd60e51b815260040161099b9061207c565b601654600f54610a5091906120b1565b4211610aea5760405162461bcd60e51b815260206004820152606060248201527f596f752063616e6e6f7420656e64207468652070726573616c6520796574206260448201527f65636175736520697420686173206e6f74206265656e2031206461792061667460648201527f657220746865206372656174696f6e206f662074686520636f6e74726163742e608482015260a40161099b565b306000818152600860205260409020546015805460ff191660019081179091555490914791610b2391906001600160a01b031684611a48565b60015460405163f305d71960e01b8152306004820181905260248201859052600060448301819052606483015260848201524260a48201526001600160a01b039091169063f305d71990839060c4016060604051808303818588803b158015610b8b57600080fd5b505af1158015610b9f573d6000803e3d6000fd5b50505050506040513d601f19601f82011682018060405250810190610bc49190611ffc565b5050426013819055601654610bda9250906120b1565b6014556011805460ff19169055601354604080518381526020810185905280820192909252517f387b2679ea91a0090aaac14d1998a14e51ae0d2ff5c004cdd6f8895c889642ea9181900360600190a15050565b60115460ff16610c745760405162461bcd60e51b8152602060048201526011602482015270141c995cd85b19481a185cc8195b991959607a1b604482015260640161099b565b8061053914610cfb5760405162461bcd60e51b815260206004820152604760248201527f446f6e277420757365207468697320636f6e74726163742070726573616c652060448201527f66756e6374696f6e20657863657074207468726f756768206f75722077656273606482015266034ba329030ba160cd1b608482015260a40161099b565b3334670de0b6b3a7640000610d11816064611df0565b821015610d605760405162461bcd60e51b815260206004820152601d60248201527f424e42206d757374206265206174206c6561737420302e303120424e42000000604482015260640161099b565b80821115610dd65760405162461bcd60e51b815260206004820152603860248201527f436170706564206174203120424e4220466f7220546869732050726553616c6560448201527f2c20706c6561736520696e707574206c65737320424e422e0000000000000000606482015260840161099b565b6001600160a01b038316600090815260126020526040812054610df99084611a30565b905081811115610ed35760405162461bcd60e51b815260206004820152608d60248201527f436170706564206174203120424e4220283130302c3030302c303030204a616760448201527f65722920506572204163636f756e742c20706c6561736520696e707574206c6560648201527f737320424e422e20436865636b2063757272656e74205075726368617365204160848201527f6d6f756e742077697468204f5242416d6f756e74507572636861736564496e5060a48201526c3932b9b0b632a4b72530b3b2b960991b60c482015260e40161099b565b6000610eee83610a0a60105487611be590919063ffffffff16565b30600090815260086020526040812054919250610f0b8284611a3c565b9050655af3107a4000808211610faf5760405162461bcd60e51b815260206004820152605f60248201527f4e6f7420656e6f756768204f5242206c65667420696e2074686520507265736160448201527f6c652e20506c6561736520636865636b20746865204f5242206c65667420696e60648201527f2074686520636f6e747261637420697473656c6620616e642041646a75737400608482015260a40161099b565b6001600160a01b0388166000908152601260205260408120869055610fd885633b9aca00611be5565b905061100e8160405180606001604052806026815260200161219960269139306000908152600860205260409020549190611dc4565b30600090815260086020526040808220929092556001600160a01b038b168152205461103a9082611a30565b6001600160a01b038a166000818152600860205260409081902092909255905130907fddf252ad1be2c89b69c2b068fc378daa952ba7f163c4a11628f55a4df523b3ef9061108b9085815260200190565b60405180910390a36001600160a01b0389166000818152601260209081526040918290205482518981529182018c90528183015290517f88e1742b58ea40c9cfa6a086d3107491b2cb0e803838e5c8ed622dcb8c9460319181900360600190a250505050505050505050565b6000546001600160a01b031633146111215760405162461bcd60e51b815260040161099b9061207c565b6014546111705760405162461bcd60e51b815260206004820152601e60248201527f5374616b696e67206d75737420626520656e61626c65642066697273742e0000604482015260640161099b565b60185460145461118091906120b1565b42116111e95760405162461bcd60e51b815260206004820152603260248201527f4d757374206265206174206c656173742035206461797320616674657220737460448201527130b5b4b733903430b99039ba30b93a32b21760711b606482015260840161099b565b600e805460ff60a01b1916600160a01b17905560405142907f23138c0a439055c6321c5532824c712ce0c40c806842a8fc57f62198415f42e790600090a2565b6017546001600160a01b0382166000908152600d60205260408120549091829161088091906120b1565b6060600580546107d29061211f565b6014546112cb5760405162461bcd60e51b815260206004820152603160248201527f5374616b696e67206d75737420626520656e61626c65642066697273742c20636044820152703432b1b5903a3432903bb2b139b4ba329760791b606482015260840161099b565b60145442116113515760405162461bcd60e51b815260206004820152604660248201527f5374616b696e67206973206e6f742079657420656e61626c65642c206368656360448201527f6b207468652077656273697465207768656e207374616b696e6720697320656e60648201526530b13632b21760d11b608482015260a40161099b565b600e54600160a01b900460ff16156113bc5760405162461bcd60e51b815260206004820152602860248201527f5374616b696e67206973206f7665722c20796f752063616e20756e7374616b65604482015267103a3437bab3b41760c11b606482015260840161099b565b336000818152600b602052604090205460ff161561141c5760405162461bcd60e51b815260206004820152601c60248201527f596f75206861766520616c7265616479207374616b6564204f52422e00000000604482015260640161099b565b633b9aca0082101561147a5760405162461bcd60e51b815260206004820152602160248201527f5265717569726573206174206c656173742031204f524220746f205374616b656044820152601760f91b606482015260840161099b565b64e8d4a510008211156114cf5760405162461bcd60e51b815260206004820152601b60248201527f4d6178696d756d20312c303030204f524220746f205374616b652e0000000000604482015260640161099b565b6001600160a01b0381166000908152600860205260409020548211156115375760405162461bcd60e51b815260206004820152601a60248201527f4e6f7420656e6f756768204f524220696e206163636f756e742e000000000000604482015260640161099b565b6001600160a01b0381166000908152600b60209081526040808320805460ff19166001179055600a82529182902084905581516060810190925260268083526115a6928592909190612199908301396001600160a01b0384166000908152600860205260409020549190611dc4565b6001600160a01b0380831660009081526008602052604080822093909355600e54909116815220546115d89083611a30565b600e546001600160a01b03908116600090815260086020908152604080832094909455918416808252600d909252828120429081905592518592917fc86d5fa4f4fde464d78e1587300661a7fd3f9699137c8f5e75ca9ffb8f648e6791a45050565b6001600160a01b0381166000908152600a6020526040812054819061165e9061086b565b9050600061166b84611229565b905080421061167b575092915050565b6000611688426064611be5565b905060006116968284611df0565b905060006116a48583611be5565b905060006116b3826064611df0565b98975050505050505050565b336000818152600c602052604090205460ff161561171f5760405162461bcd60e51b815260206004820152601e60248201527f596f75206861766520616c726561647920556e5374616b6564204f52422e0000604482015260640161099b565b6001600160a01b0381166000908152600c60205260409020805460ff19166001179055600e54600160a01b900460ff166117db576017546001600160a01b0382166000908152600d602052604090205461177991906120b1565b42116117db5760405162461bcd60e51b815260206004820152602b60248201527f596f752063616e6e6f7420756e7374616b652c20697420686173206e6f74206260448201526a32b2b71019903230bcb99760a91b606482015260840161099b565b61183f600a6000836001600160a01b03166001600160a01b031681526020019081526020016000205460405180606001604052806026815260200161219960269139600e546001600160a01b03166000908152600860205260409020549190611dc4565b600e546001600160a01b039081166000908152600860208181526040808420959095559285168252600a8352838220549252919091205461187f91611a30565b6001600160a01b0382166000908152600860205260408120919091556118a48261163a565b90506118b08282611dfc565b60405142906001600160a01b038416907f6247d026a95f976a66a54d5bcd9789ddbf15caf086c935042d7d39a373be54ef90600090a35050565b600061086233846108e1856040518060600160405280602581526020016121bf602591393360009081526009602090815260408083206001600160a01b038d1684529091529020549190611dc4565b6000610862338484611bf1565b6000546001600160a01b031633146119705760405162461bcd60e51b815260040161099b9061207c565b6001600160a01b0381166119d55760405162461bcd60e51b815260206004820152602660248201527f4f776e61626c653a206e6577206f776e657220697320746865207a65726f206160448201526564647265737360d01b606482015260840161099b565b600080546040516001600160a01b03808516939216917f8be0079c531659141344cd1fd0a4f28419497f9722a3daafe3b4186f6b6457e091a3600080546001600160a01b0319166001600160a01b0392909216919091179055565b600061088082846120b1565b60006108808284612108565b60155460ff16611ac05760405162461bcd60e51b815260206004820152603a60248201527f417070726f766573206d75737420626520656e61626c6564206669727374206160448201527f66746572207468652050726553616c6520697320656e6465642e000000000000606482015260840161099b565b6001600160a01b038316611b225760405162461bcd60e51b8152602060048201526024808201527f42455032303a20617070726f76652066726f6d20746865207a65726f206164646044820152637265737360e01b606482015260840161099b565b6001600160a01b038216611b835760405162461bcd60e51b815260206004820152602260248201527f42455032303a20617070726f766520746f20746865207a65726f206164647265604482015261737360f01b606482015260840161099b565b6001600160a01b0383811660008181526009602090815260408083209487168084529482529182902085905590518481527f8c5be1e5ebec7d5bd14f71427d1e84f3dd0314c0f7b2291e5b200ac8c7c3b92591015b60405180910390a3505050565b600061088082846120e9565b6001600160a01b038316611c555760405162461bcd60e51b815260206004820152602560248201527f42455032303a207472616e736665722066726f6d20746865207a65726f206164604482015264647265737360d81b606482015260840161099b565b6001600160a01b038216611cb75760405162461bcd60e51b815260206004820152602360248201527f42455032303a207472616e7366657220746f20746865207a65726f206164647260448201526265737360e81b606482015260840161099b565b80611d045760405162461bcd60e51b815260206004820152601c60248201527f42455032303a207472616e7366657220616d6f756e7420776173203000000000604482015260640161099b565b611d4181604051806060016040528060268152602001612199602691396001600160a01b0386166000908152600860205260409020549190611dc4565b6001600160a01b038085166000908152600860205260408082209390935590841681522054611d709082611a30565b6001600160a01b0380841660008181526008602052604090819020939093559151908516907fddf252ad1be2c89b69c2b068fc378daa952ba7f163c4a11628f55a4df523b3ef90611bd89085815260200190565b60008184841115611de85760405162461bcd60e51b815260040161099b9190612029565b505050900390565b600061088082846120c9565b6001600160a01b038216611e525760405162461bcd60e51b815260206004820152601f60248201527f42455032303a206d696e7420746f20746865207a65726f206164647265737300604482015260640161099b565b600754611e5f9082611a30565b6007556001600160a01b038216600090815260086020526040902054611e859082611a30565b6001600160a01b0383166000818152600860205260408082209390935591519091907fddf252ad1be2c89b69c2b068fc378daa952ba7f163c4a11628f55a4df523b3ef90611ed69085815260200190565b60405180910390a360405181906001600160a01b038416907f4c19eb630ef41bcd82b886369c61b97531fd44827f816b61f74655f69534931b90600090a35050565b80356001600160a01b0381168114611f2f57600080fd5b919050565b600060208284031215611f45578081fd5b61088082611f18565b60008060408385031215611f60578081fd5b611f6983611f18565b9150611f7760208401611f18565b90509250929050565b600080600060608486031215611f94578081fd5b611f9d84611f18565b9250611fab60208501611f18565b9150604084013590509250925092565b60008060408385031215611fcd578182fd5b611fd683611f18565b946020939093013593505050565b600060208284031215611ff5578081fd5b5035919050565b600080600060608486031215612010578283fd5b8351925060208401519150604084015190509250925092565b6000602080835283518082850152825b8181101561205557858101830151858201604001528201612039565b818111156120665783604083870101525b50601f01601f1916929092016040019392505050565b6020808252818101527f4f776e61626c653a2063616c6c6572206973206e6f7420746865206f776e6572604082015260600190565b600082198211156120c4576120c461215a565b500190565b6000826120e457634e487b7160e01b81526012600452602481fd5b500490565b60008160001904831182151516156121035761210361215a565b500290565b60008282101561211a5761211a61215a565b500390565b600181811c9082168061213357607f821691505b6020821081141561215457634e487b7160e01b600052602260045260246000fd5b50919050565b634e487b7160e01b600052601160045260246000fdfe42455032303a207472616e7366657220616d6f756e74206578636565647320616c6c6f77616e636542455032303a207472616e7366657220616d6f756e7420657863656564732062616c616e636542455032303a2064656372656173656420616c6c6f77616e63652062656c6f77207a65726fa2646970667358221220080b01f6add846fc942201b84a6498c71b4bb879dbeb9dcbb0436ea8ce33a71b64736f6c634300080400338be0079c531659141344cd1fd0a4f28419497f9722a3daafe3b4186f6b6457e0",
    "linkReferences": {},
    "deployedLinkReferences": {}
}