{
  "_format": "hh-sol-artifact-1",
  "contractName": "TheORB",
  "sourceName": "contracts/TheORB.sol",
  "abi": [
    {
      "inputs": [],
      "stateMutability": "nonpayable",
      "type": "constructor"
    },
    {
      "anonymous": false,
      "inputs": [
        {
          "indexed": true,
          "internalType": "uint256",
          "name": "timeAllStakingUnlocked",
          "type": "uint256"
        }
      ],
      "name": "AllStakingUnlocked",
      "type": "event"
    },
    {
      "anonymous": false,
      "inputs": [
        {
          "indexed": true,
          "internalType": "address",
          "name": "owner",
          "type": "address"
        },
        {
          "indexed": true,
          "internalType": "address",
          "name": "spender",
          "type": "address"
        },
        {
          "indexed": false,
          "internalType": "uint256",
          "name": "value",
          "type": "uint256"
        }
      ],
      "name": "Approval",
      "type": "event"
    },
    {
      "anonymous": false,
      "inputs": [
        {
          "indexed": false,
          "internalType": "string",
          "name": "message",
          "type": "string"
        }
      ],
      "name": "ContractDeployed",
      "type": "event"
    },
    {
      "anonymous": false,
      "inputs": [
        {
          "indexed": false,
          "internalType": "uint256",
          "name": "BNBprovidedToPancakeSwap",
          "type": "uint256"
        },
        {
          "indexed": false,
          "internalType": "uint256",
          "name": "ORBprovidedToPancakeSwap",
          "type": "uint256"
        },
        {
          "indexed": false,
          "internalType": "uint256",
          "name": "timePresaleEndedAndLiquidityProvided",
          "type": "uint256"
        }
      ],
      "name": "EndedPresaleProvidedLiquidity",
      "type": "event"
    },
    {
      "anonymous": false,
      "inputs": [
        {
          "indexed": true,
          "internalType": "address",
          "name": "accountMintedTo",
          "type": "address"
        },
        {
          "indexed": true,
          "internalType": "uint256",
          "name": "amountMinted",
          "type": "uint256"
        }
      ],
      "name": "MintedORB",
      "type": "event"
    },
    {
      "anonymous": false,
      "inputs": [
        {
          "indexed": true,
          "internalType": "address",
          "name": "stakerAddress",
          "type": "address"
        },
        {
          "indexed": true,
          "internalType": "uint256",
          "name": "amountOfORBstaked",
          "type": "uint256"
        },
        {
          "indexed": true,
          "internalType": "uint256",
          "name": "timeStaked",
          "type": "uint256"
        }
      ],
      "name": "ORBstaked",
      "type": "event"
    },
    {
      "anonymous": false,
      "inputs": [
        {
          "indexed": true,
          "internalType": "address",
          "name": "stakerAddress",
          "type": "address"
        },
        {
          "indexed": true,
          "internalType": "uint256",
          "name": "timeUnStaked",
          "type": "uint256"
        }
      ],
      "name": "ORBunStaked",
      "type": "event"
    },
    {
      "anonymous": false,
      "inputs": [
        {
          "indexed": true,
          "internalType": "address",
          "name": "previousOwner",
          "type": "address"
        },
        {
          "indexed": true,
          "internalType": "address",
          "name": "newOwner",
          "type": "address"
        }
      ],
      "name": "OwnershipTransferred",
      "type": "event"
    },
    {
      "anonymous": false,
      "inputs": [
        {
          "indexed": true,
          "internalType": "address",
          "name": "buyer",
          "type": "address"
        },
        {
          "indexed": false,
          "internalType": "uint256",
          "name": "amountORBpurchased",
          "type": "uint256"
        },
        {
          "indexed": false,
          "internalType": "uint256",
          "name": "amountBNBInJagerSold",
          "type": "uint256"
        },
        {
          "indexed": false,
          "internalType": "uint256",
          "name": "totalORBAmountPurchasedInPresaleInJager",
          "type": "uint256"
        }
      ],
      "name": "PreSalePurchase",
      "type": "event"
    },
    {
      "anonymous": false,
      "inputs": [
        {
          "indexed": true,
          "internalType": "address",
          "name": "from",
          "type": "address"
        },
        {
          "indexed": true,
          "internalType": "address",
          "name": "to",
          "type": "address"
        },
        {
          "indexed": false,
          "internalType": "uint256",
          "name": "value",
          "type": "uint256"
        }
      ],
      "name": "Transfer",
      "type": "event"
    },
    {
      "inputs": [
        {
          "internalType": "address",
          "name": "",
          "type": "address"
        }
      ],
      "name": "ORBAmountPurchasedInPresaleInJager",
      "outputs": [
        {
          "internalType": "uint256",
          "name": "",
          "type": "uint256"
        }
      ],
      "stateMutability": "view",
      "type": "function"
    },
    {
      "inputs": [
        {
          "internalType": "address",
          "name": "owner",
          "type": "address"
        },
        {
          "internalType": "address",
          "name": "spender",
          "type": "address"
        }
      ],
      "name": "allowance",
      "outputs": [
        {
          "internalType": "uint256",
          "name": "",
          "type": "uint256"
        }
      ],
      "stateMutability": "view",
      "type": "function"
    },
    {
      "inputs": [
        {
          "internalType": "address",
          "name": "",
          "type": "address"
        },
        {
          "internalType": "address",
          "name": "",
          "type": "address"
        }
      ],
      "name": "allowancesOfToken",
      "outputs": [
        {
          "internalType": "uint256",
          "name": "",
          "type": "uint256"
        }
      ],
      "stateMutability": "view",
      "type": "function"
    },
    {
      "inputs": [
        {
          "internalType": "address",
          "name": "",
          "type": "address"
        }
      ],
      "name": "amountORBstaked",
      "outputs": [
        {
          "internalType": "uint256",
          "name": "",
          "type": "uint256"
        }
      ],
      "stateMutability": "view",
      "type": "function"
    },
    {
      "inputs": [
        {
          "internalType": "address",
          "name": "spender",
          "type": "address"
        },
        {
          "internalType": "uint256",
          "name": "amount",
          "type": "uint256"
        }
      ],
      "name": "approve",
      "outputs": [
        {
          "internalType": "bool",
          "name": "",
          "type": "bool"
        }
      ],
      "stateMutability": "nonpayable",
      "type": "function"
    },
    {
      "inputs": [
        {
          "internalType": "address",
          "name": "account",
          "type": "address"
        }
      ],
      "name": "balanceOf",
      "outputs": [
        {
          "internalType": "uint256",
          "name": "",
          "type": "uint256"
        }
      ],
      "stateMutability": "view",
      "type": "function"
    },
    {
      "inputs": [],
      "name": "calculateAPY",
      "outputs": [
        {
          "internalType": "uint256",
          "name": "",
          "type": "uint256"
        }
      ],
      "stateMutability": "pure",
      "type": "function"
    },
    {
      "inputs": [],
      "name": "calculateThreeDayRate",
      "outputs": [
        {
          "internalType": "uint256",
          "name": "",
          "type": "uint256"
        }
      ],
      "stateMutability": "pure",
      "type": "function"
    },
    {
      "inputs": [],
      "name": "creationDateOfcContract",
      "outputs": [
        {
          "internalType": "uint256",
          "name": "",
          "type": "uint256"
        }
      ],
      "stateMutability": "view",
      "type": "function"
    },
    {
      "inputs": [],
      "name": "deadAddress",
      "outputs": [
        {
          "internalType": "address",
          "name": "",
          "type": "address"
        }
      ],
      "stateMutability": "view",
      "type": "function"
    },
    {
      "inputs": [],
      "name": "decimals",
      "outputs": [
        {
          "internalType": "uint8",
          "name": "",
          "type": "uint8"
        }
      ],
      "stateMutability": "view",
      "type": "function"
    },
    {
      "inputs": [
        {
          "internalType": "address",
          "name": "spender",
          "type": "address"
        },
        {
          "internalType": "uint256",
          "name": "subtractedValue",
          "type": "uint256"
        }
      ],
      "name": "decreaseAllowance",
      "outputs": [
        {
          "internalType": "bool",
          "name": "",
          "type": "bool"
        }
      ],
      "stateMutability": "nonpayable",
      "type": "function"
    },
    {
      "inputs": [],
      "name": "endPresaleProvideLiquidity",
      "outputs": [],
      "stateMutability": "nonpayable",
      "type": "function"
    },
    {
      "inputs": [],
      "name": "getOwner",
      "outputs": [
        {
          "internalType": "address",
          "name": "",
          "type": "address"
        }
      ],
      "stateMutability": "view",
      "type": "function"
    },
    {
      "inputs": [
        {
          "internalType": "address",
          "name": "",
          "type": "address"
        }
      ],
      "name": "hasStakedORB",
      "outputs": [
        {
          "internalType": "bool",
          "name": "",
          "type": "bool"
        }
      ],
      "stateMutability": "view",
      "type": "function"
    },
    {
      "inputs": [
        {
          "internalType": "address",
          "name": "",
          "type": "address"
        }
      ],
      "name": "hasUnStakedORB",
      "outputs": [
        {
          "internalType": "bool",
          "name": "",
          "type": "bool"
        }
      ],
      "stateMutability": "view",
      "type": "function"
    },
    {
      "inputs": [
        {
          "internalType": "uint256",
          "name": "amountOfOrbStaked",
          "type": "uint256"
        }
      ],
      "name": "howMuchORBafterStaking3days",
      "outputs": [
        {
          "internalType": "uint256",
          "name": "",
          "type": "uint256"
        }
      ],
      "stateMutability": "pure",
      "type": "function"
    },
    {
      "inputs": [
        {
          "internalType": "address",
          "name": "stakerAddress",
          "type": "address"
        }
      ],
      "name": "howMuchORBhasBeenGeneratedSoFar",
      "outputs": [
        {
          "internalType": "uint256",
          "name": "",
          "type": "uint256"
        }
      ],
      "stateMutability": "view",
      "type": "function"
    },
    {
      "inputs": [
        {
          "internalType": "address",
          "name": "spender",
          "type": "address"
        },
        {
          "internalType": "uint256",
          "name": "addedValue",
          "type": "uint256"
        }
      ],
      "name": "increaseAllowance",
      "outputs": [
        {
          "internalType": "bool",
          "name": "",
          "type": "bool"
        }
      ],
      "stateMutability": "nonpayable",
      "type": "function"
    },
    {
      "inputs": [],
      "name": "isAllStakingUnlocked",
      "outputs": [
        {
          "internalType": "bool",
          "name": "",
          "type": "bool"
        }
      ],
      "stateMutability": "view",
      "type": "function"
    },
    {
      "inputs": [],
      "name": "isApproveEnabled",
      "outputs": [
        {
          "internalType": "bool",
          "name": "",
          "type": "bool"
        }
      ],
      "stateMutability": "view",
      "type": "function"
    },
    {
      "inputs": [],
      "name": "isPresaleEnabled",
      "outputs": [
        {
          "internalType": "bool",
          "name": "",
          "type": "bool"
        }
      ],
      "stateMutability": "view",
      "type": "function"
    },
    {
      "inputs": [],
      "name": "isStakingReadyAfterSales",
      "outputs": [
        {
          "internalType": "bool",
          "name": "",
          "type": "bool"
        }
      ],
      "stateMutability": "view",
      "type": "function"
    },
    {
      "inputs": [],
      "name": "name",
      "outputs": [
        {
          "internalType": "string",
          "name": "",
          "type": "string"
        }
      ],
      "stateMutability": "view",
      "type": "function"
    },
    {
      "inputs": [],
      "name": "owner",
      "outputs": [
        {
          "internalType": "address",
          "name": "",
          "type": "address"
        }
      ],
      "stateMutability": "view",
      "type": "function"
    },
    {
      "inputs": [],
      "name": "pancakeswapPair",
      "outputs": [
        {
          "internalType": "address",
          "name": "",
          "type": "address"
        }
      ],
      "stateMutability": "view",
      "type": "function"
    },
    {
      "inputs": [],
      "name": "pancakeswapRouter",
      "outputs": [
        {
          "internalType": "contract IPancakeRouter02",
          "name": "",
          "type": "address"
        }
      ],
      "stateMutability": "view",
      "type": "function"
    },
    {
      "inputs": [],
      "name": "preSaleRate",
      "outputs": [
        {
          "internalType": "uint256",
          "name": "",
          "type": "uint256"
        }
      ],
      "stateMutability": "view",
      "type": "function"
    },
    {
      "inputs": [
        {
          "internalType": "uint256",
          "name": "keyCode",
          "type": "uint256"
        }
      ],
      "name": "presaleBuy",
      "outputs": [],
      "stateMutability": "payable",
      "type": "function"
    },
    {
      "inputs": [],
      "name": "renounceOwnership",
      "outputs": [],
      "stateMutability": "nonpayable",
      "type": "function"
    },
    {
      "inputs": [],
      "name": "routerAddressForDEX",
      "outputs": [
        {
          "internalType": "address",
          "name": "",
          "type": "address"
        }
      ],
      "stateMutability": "view",
      "type": "function"
    },
    {
      "inputs": [
        {
          "internalType": "uint256",
          "name": "amountOfORBtoStake",
          "type": "uint256"
        }
      ],
      "name": "stakeORB",
      "outputs": [],
      "stateMutability": "nonpayable",
      "type": "function"
    },
    {
      "inputs": [
        {
          "internalType": "address",
          "name": "stakerAddress",
          "type": "address"
        }
      ],
      "name": "stakeUnlockTime",
      "outputs": [
        {
          "internalType": "uint256",
          "name": "",
          "type": "uint256"
        }
      ],
      "stateMutability": "view",
      "type": "function"
    },
    {
      "inputs": [],
      "name": "symbol",
      "outputs": [
        {
          "internalType": "string",
          "name": "",
          "type": "string"
        }
      ],
      "stateMutability": "view",
      "type": "function"
    },
    {
      "inputs": [],
      "name": "timePresaleEndedAndLiquidityProvided",
      "outputs": [
        {
          "internalType": "uint256",
          "name": "",
          "type": "uint256"
        }
      ],
      "stateMutability": "view",
      "type": "function"
    },
    {
      "inputs": [],
      "name": "timeStakingIsEnabled",
      "outputs": [
        {
          "internalType": "uint256",
          "name": "",
          "type": "uint256"
        }
      ],
      "stateMutability": "view",
      "type": "function"
    },
    {
      "inputs": [],
      "name": "timeStampOfCurrentBlock",
      "outputs": [
        {
          "internalType": "uint256",
          "name": "",
          "type": "uint256"
        }
      ],
      "stateMutability": "view",
      "type": "function"
    },
    {
      "inputs": [
        {
          "internalType": "address",
          "name": "",
          "type": "address"
        }
      ],
      "name": "timeStartedStaking",
      "outputs": [
        {
          "internalType": "uint256",
          "name": "",
          "type": "uint256"
        }
      ],
      "stateMutability": "view",
      "type": "function"
    },
    {
      "inputs": [
        {
          "internalType": "address",
          "name": "stakerAddress",
          "type": "address"
        }
      ],
      "name": "timeUntilStakingUnlocks",
      "outputs": [
        {
          "internalType": "uint256",
          "name": "",
          "type": "uint256"
        }
      ],
      "stateMutability": "view",
      "type": "function"
    },
    {
      "inputs": [],
      "name": "totalSupply",
      "outputs": [
        {
          "internalType": "uint256",
          "name": "",
          "type": "uint256"
        }
      ],
      "stateMutability": "view",
      "type": "function"
    },
    {
      "inputs": [
        {
          "internalType": "address",
          "name": "recipient",
          "type": "address"
        },
        {
          "internalType": "uint256",
          "name": "amount",
          "type": "uint256"
        }
      ],
      "name": "transfer",
      "outputs": [
        {
          "internalType": "bool",
          "name": "",
          "type": "bool"
        }
      ],
      "stateMutability": "nonpayable",
      "type": "function"
    },
    {
      "inputs": [
        {
          "internalType": "address",
          "name": "sender",
          "type": "address"
        },
        {
          "internalType": "address",
          "name": "recipient",
          "type": "address"
        },
        {
          "internalType": "uint256",
          "name": "amount",
          "type": "uint256"
        }
      ],
      "name": "transferFrom",
      "outputs": [
        {
          "internalType": "bool",
          "name": "",
          "type": "bool"
        }
      ],
      "stateMutability": "nonpayable",
      "type": "function"
    },
    {
      "inputs": [
        {
          "internalType": "address",
          "name": "newOwner",
          "type": "address"
        }
      ],
      "name": "transferOwnership",
      "outputs": [],
      "stateMutability": "nonpayable",
      "type": "function"
    },
    {
      "inputs": [],
      "name": "unStakeORB",
      "outputs": [],
      "stateMutability": "nonpayable",
      "type": "function"
    },
    {
      "inputs": [],
      "name": "unlockAllStaking",
      "outputs": [],
      "stateMutability": "nonpayable",
      "type": "function"
    },
    {
      "stateMutability": "payable",
      "type": "receive"
    }
  ],
  "bytecode": "0x60806040523480156200001157600080fd5b50600080546001600160a01b031916339081178255604051909182916000805160206200294f833981519152908290a350600e80546001600160a01b0319169055604080518082019091526007808252662a34329027a92160c91b60209092019182523391620000859160049190620004ae565b506040805180820190915260038082526227a92160e91b6020909201918252620000b291600591620004ae565b506006805460ff1916600917905566038d7ea4c68000600781905530600090815260086020526040808220839055516001600160a01b038416927fddf252ad1be2c89b69c2b068fc378daa952ba7f163c4a11628f55a4df523b3ef916200011b91815260200190565b60405180910390a36040516001600160a01b038216906000906000805160206200294f833981519152908290a3600380546001600160a01b0319167310ed43c718714eb63d5aa57b78b54704e256024e9081179091556040805163c45a015560e01b81529051829163c45a0155916004808301926020929190829003018186803b158015620001a957600080fd5b505afa158015620001be573d6000803e3d6000fd5b505050506040513d601f19601f82011682018060405250810190620001e4919062000554565b6001600160a01b031663c9c6539630836001600160a01b031663ad5c46486040518163ffffffff1660e01b815260040160206040518083038186803b1580156200022d57600080fd5b505afa15801562000242573d6000803e3d6000fd5b505050506040513d601f19601f8201168201806040525081019062000268919062000554565b6040516001600160e01b031960e085901b1681526001600160a01b03928316600482015291166024820152604401602060405180830381600087803b158015620002b157600080fd5b505af1158015620002c6573d6000803e3d6000fd5b505050506040513d601f19601f82011682018060405250810190620002ec919062000554565b600280546001600160a01b03199081166001600160a01b039384161790915560018054909116918316919091179055306000908152600860209081526040909120546509184e72a00091651b48eb57e000918291620003579190839062000499811b62001b7817901c565b30600090815260086020526040808220929092557f3f1ffc0345adfc12ac231cfb04e5f1278f0e8e0ac403d01521f10a62790800518590557f919911c3284d861ab6e0228b5d956de085835e9cfc33188e3f4a8475dfde21ef8590557387fcb413d80d56a02bab6b8e7ad1736667efe56e90527fb960ac53f21be77c5dc139b2e023371bb6d3b0fb46951c0c9c57dbe4f7974ffd849055600e805460ff60a01b1916905542600f55620151806016556203f480601755620697806018556011805460ff199081166001179091556103e8601055601580549091169055517f0d0ebe685f2c334e83847eb5e89a8d3d8919558c63ef37cf7fc3e7b86dd88b6d906200048690602080825260119082015270546865204f5242204c61756e636865642160781b604082015260600190565b60405180910390a15050505050620005de565b6000620004a782846200057d565b9392505050565b828054620004bc90620005a1565b90600052602060002090601f016020900481019282620004e057600085556200052b565b82601f10620004fb57805160ff19168380011785556200052b565b828001600101855582156200052b579182015b828111156200052b5782518255916020019190600101906200050e565b50620005399291506200053d565b5090565b5b808211156200053957600081556001016200053e565b60006020828403121562000566578081fd5b81516001600160a01b0381168114620004a7578182fd5b6000828210156200059c57634e487b7160e01b81526011600452602481fd5b500390565b600181811c90821680620005b657607f821691505b60208210811415620005d857634e487b7160e01b600052602260045260246000fd5b50919050565b61236180620005ee6000396000f3fe6080604052600436106102765760003560e01c80638b00a55a1161014f578063a9059cbb116100c1578063db6754ed1161007a578063db6754ed1461074b578063dd62ed3e1461076b578063e0f66fca146107b1578063e1348f65146107cb578063efbe389a146107ec578063f2fde38b1461080c57600080fd5b8063a9059cbb14610692578063afc38ccc146106b2578063b2285881146106c5578063c66e3f64146106f2578063d3b282c714610708578063d833dbe91461073557600080fd5b80639717d7a4116101135780639717d7a4146105d05780639a418d56146105f05780639d8f37e314610610578063a087a0c814610625578063a457c2d714610652578063a4f234be1461067257600080fd5b80638b00a55a1461054e5780638da5cb5b1461051a5780638dfb2dbc146105635780638f120ece1461058357806395d89b41146105bb57600080fd5b806361f11c1a116101e85780637e990e09116101ac5780637e990e09146104ad578063815f7bbd146104c2578063831d1171146104d5578063874cbaa9146104ea578063893d20e81461051a578063899777331461053857600080fd5b806361f11c1a1461040157806370a082311461041b578063715018a61461045157806371b72d1c146104685780637c3a122b1461047d57600080fd5b80631b5251e11161023a5780631b5251e11461033257806323b872dd1461035257806327c8f835146103725780632a648300146103aa578063313ce567146103bf57806339509351146103e157600080fd5b806303d7e38d1461028257806306fdde03146102ab578063095ea7b3146102cd5780630fddd45f146102fd57806318160ddd1461031d57600080fd5b3661027d57005b600080fd5b34801561028e57600080fd5b5061029860135481565b6040519081526020015b60405180910390f35b3480156102b757600080fd5b506102c061082c565b6040516102a29190612171565b3480156102d957600080fd5b506102ed6102e8366004612103565b6108be565b60405190151581526020016102a2565b34801561030957600080fd5b5061029861031836600461212c565b6108d4565b34801561032957600080fd5b50600754610298565b34801561033e57600080fd5b5061029861034d36600461207c565b6108f0565b34801561035e57600080fd5b506102ed61036d3660046120c8565b610961565b34801561037e57600080fd5b50600e54610392906001600160a01b031681565b6040516001600160a01b0390911681526020016102a2565b3480156103b657600080fd5b506102986109ca565b3480156103cb57600080fd5b5060065460405160ff90911681526020016102a2565b3480156103ed57600080fd5b506102ed6103fc366004612103565b610a15565b34801561040d57600080fd5b506015546102ed9060ff1681565b34801561042757600080fd5b5061029861043636600461207c565b6001600160a01b031660009081526008602052604090205490565b34801561045d57600080fd5b50610466610a4b565b005b34801561047457600080fd5b50610298610ac8565b34801561048957600080fd5b506102ed61049836600461207c565b600c6020526000908152604090205460ff1681565b3480156104b957600080fd5b50610466610af0565b6104666104d036600461212c565b610d08565b3480156104e157600080fd5b506102ed6111e7565b3480156104f657600080fd5b506102ed61050536600461207c565b600b6020526000908152604090205460ff1681565b34801561052657600080fd5b506000546001600160a01b0316610392565b34801561054457600080fd5b50610298600f5481565b34801561055a57600080fd5b50610466611210565b34801561056f57600080fd5b5061029861057e36600461207c565b611342565b34801561058f57600080fd5b5061029861059e366004612096565b600960209081526000928352604080842090915290825290205481565b3480156105c757600080fd5b506102c061138e565b3480156105dc57600080fd5b506104666105eb36600461212c565b61139d565b3480156105fc57600080fd5b5061029861060b36600461207c565b611775565b34801561061c57600080fd5b506104666117fa565b34801561063157600080fd5b5061029861064036600461207c565b600a6020526000908152604090205481565b34801561065e57600080fd5b506102ed61066d366004612103565b611a32565b34801561067e57600080fd5b50600354610392906001600160a01b031681565b34801561069e57600080fd5b506102ed6106ad366004612103565b611a81565b3480156106be57600080fd5b5042610298565b3480156106d157600080fd5b506102986106e036600461207c565b600d6020526000908152604090205481565b3480156106fe57600080fd5b5061029860145481565b34801561071457600080fd5b5061029861072336600461207c565b60126020526000908152604090205481565b34801561074157600080fd5b5061029860105481565b34801561075757600080fd5b50600154610392906001600160a01b031681565b34801561077757600080fd5b50610298610786366004612096565b6001600160a01b03918216600090815260096020908152604080832093909416825291909152205490565b3480156107bd57600080fd5b506011546102ed9060ff1681565b3480156107d757600080fd5b50600e546102ed90600160a01b900460ff1681565b3480156107f857600080fd5b50600254610392906001600160a01b031681565b34801561081857600080fd5b5061046661082736600461207c565b611a8e565b60606004805461083b90612267565b80601f016020809104026020016040519081016040528092919081815260200182805461086790612267565b80156108b45780601f10610889576101008083540402835291602001916108b4565b820191906000526020600020905b81548152906001019060200180831161089757829003601f168201915b5050505050905090565b60006108cb338484611b84565b50600192915050565b6000806108e96108e2610ac8565b8490611d21565b9392505050565b6001600160a01b0381166000908152600d602052604081205461091757506203f480919050565b6017546001600160a01b0383166000908152600d602052604090205461093d91906121f9565b42111561094c57506000919050565b60006108e94261095b85611342565b90611b78565b600061096e848484611d2d565b6109c084336109bb856040518060600160405280602881526020016122b9602891396001600160a01b038a1660009081526009602090815260408083203384529091529020549190611f00565b611b84565b5060019392505050565b6000620f424061016d826109de8383611f2c565b905060006109ed826001611f38565b905060006109fb8285611d21565b90506000610a0a826001611b78565b979650505050505050565b3360008181526009602090815260408083206001600160a01b038716845290915281205490916108cb9185906109bb9086611f38565b6000546001600160a01b03163314610a7e5760405162461bcd60e51b8152600401610a75906121c4565b60405180910390fd5b600080546040516001600160a01b03909116907f8be0079c531659141344cd1fd0a4f28419497f9722a3daafe3b4186f6b6457e0908390a3600080546001600160a01b0319169055565b600080610aea61016d610ae46003610ade6109ca565b90611d21565b90611f2c565b92915050565b6000546001600160a01b03163314610b1a5760405162461bcd60e51b8152600401610a75906121c4565b601654600f54610b2a91906121f9565b4211610bc45760405162461bcd60e51b815260206004820152606060248201527f596f752063616e6e6f7420656e64207468652070726573616c6520796574206260448201527f65636175736520697420686173206e6f74206265656e2031206461792061667460648201527f657220746865206372656174696f6e206f662074686520636f6e74726163742e608482015260a401610a75565b306000818152600860205260409020546015805460ff191660019081179091555490914791610bfd91906001600160a01b031684611b84565b60015460405163f305d71960e01b8152306004820181905260248201859052600060448301819052606483015260848201524260a48201526001600160a01b039091169063f305d71990839060c4016060604051808303818588803b158015610c6557600080fd5b505af1158015610c79573d6000803e3d6000fd5b50505050506040513d601f19601f82011682018060405250810190610c9e9190612144565b5050426013819055601654610cb49250906121f9565b6014556011805460ff19169055601354604080518381526020810185905280820192909252517f387b2679ea91a0090aaac14d1998a14e51ae0d2ff5c004cdd6f8895c889642ea9181900360600190a15050565b60115460ff16610d4e5760405162461bcd60e51b8152602060048201526011602482015270141c995cd85b19481a185cc8195b991959607a1b6044820152606401610a75565b8061053914610deb5760405162461bcd60e51b815260206004820152605e60248201527f446f6e277420757365207468697320636f6e74726163742070726573616c652060448201527f66756e6374696f6e20657863657074207468726f756768206f7572207765627360648201527f6974652061742068747470733a2f2f7468656f72622e66696e616e6365200000608482015260a401610a75565b3334670de0b6b3a7640000610e01816064611f2c565b821015610e505760405162461bcd60e51b815260206004820152601d60248201527f424e42206d757374206265206174206c6561737420302e303120424e420000006044820152606401610a75565b80821115610ec65760405162461bcd60e51b815260206004820152603860248201527f436170706564206174203120424e4220466f7220546869732050726553616c6560448201527f2c20706c6561736520696e707574206c65737320424e422e00000000000000006064820152608401610a75565b6001600160a01b038316600090815260126020526040812054610ee99084611f38565b905081811115610fc35760405162461bcd60e51b815260206004820152608d60248201527f436170706564206174203120424e4220283130302c3030302c303030204a616760448201527f65722920506572204163636f756e742c20706c6561736520696e707574206c6560648201527f737320424e422e20436865636b2063757272656e74205075726368617365204160848201527f6d6f756e742077697468204f5242416d6f756e74507572636861736564496e5060a48201526c3932b9b0b632a4b72530b3b2b960991b60c482015260e401610a75565b6000610fde83610ae460105487611d2190919063ffffffff16565b30600090815260086020526040812054919250610ffb8284611b78565b9050655af3107a400080821161109f5760405162461bcd60e51b815260206004820152605f60248201527f4e6f7420656e6f756768204f5242206c65667420696e2074686520507265736160448201527f6c652e20506c6561736520636865636b20746865204f5242206c65667420696e60648201527f2074686520636f6e747261637420697473656c6620616e642041646a75737400608482015260a401610a75565b6001600160a01b03881660009081526012602052604081208690556110c885633b9aca00611d21565b90506110fe816040518060600160405280602681526020016122e160269139306000908152600860205260409020549190611f00565b30600090815260086020526040808220929092556001600160a01b038b168152205461112a9082611f38565b6001600160a01b038a166000818152600860205260409081902092909255905130907fddf252ad1be2c89b69c2b068fc378daa952ba7f163c4a11628f55a4df523b3ef9061117b9085815260200190565b60405180910390a36001600160a01b0389166000818152601260209081526040918290205482518981529182018c90528183015290517f88e1742b58ea40c9cfa6a086d3107491b2cb0e803838e5c8ed622dcb8c9460319181900360600190a250505050505050505050565b6000601454600014156111fa5750600090565b42601454111561120a5750600090565b50600190565b6000546001600160a01b0316331461123a5760405162461bcd60e51b8152600401610a75906121c4565b6014546112895760405162461bcd60e51b815260206004820152601e60248201527f5374616b696e67206d75737420626520656e61626c65642066697273742e00006044820152606401610a75565b60185460145461129991906121f9565b42116113025760405162461bcd60e51b815260206004820152603260248201527f4d757374206265206174206c656173742035206461797320616674657220737460448201527130b5b4b733903430b99039ba30b93a32b21760711b6064820152608401610a75565b600e805460ff60a01b1916600160a01b17905560405142907f23138c0a439055c6321c5532824c712ce0c40c806842a8fc57f62198415f42e790600090a2565b6001600160a01b0381166000908152600d602052604081205461136757506000919050565b6017546001600160a01b0383166000908152600d602052604081205490916108e9916121f9565b60606005805461083b90612267565b6014546114065760405162461bcd60e51b815260206004820152603160248201527f5374616b696e67206d75737420626520656e61626c65642066697273742c20636044820152703432b1b5903a3432903bb2b139b4ba329760791b6064820152608401610a75565b601454421161148c5760405162461bcd60e51b815260206004820152604660248201527f5374616b696e67206973206e6f742079657420656e61626c65642c206368656360448201527f6b207468652077656273697465207768656e207374616b696e6720697320656e60648201526530b13632b21760d11b608482015260a401610a75565b600e54600160a01b900460ff16156114f75760405162461bcd60e51b815260206004820152602860248201527f5374616b696e67206973206f7665722c20796f752063616e20756e7374616b65604482015267103a3437bab3b41760c11b6064820152608401610a75565b336000818152600b602052604090205460ff16156115575760405162461bcd60e51b815260206004820152601c60248201527f596f75206861766520616c7265616479207374616b6564204f52422e000000006044820152606401610a75565b633b9aca008210156115b55760405162461bcd60e51b815260206004820152602160248201527f5265717569726573206174206c656173742031204f524220746f205374616b656044820152601760f91b6064820152608401610a75565b64e8d4a5100082111561160a5760405162461bcd60e51b815260206004820152601b60248201527f4d6178696d756d20312c303030204f524220746f205374616b652e00000000006044820152606401610a75565b6001600160a01b0381166000908152600860205260409020548211156116725760405162461bcd60e51b815260206004820152601a60248201527f4e6f7420656e6f756768204f524220696e206163636f756e742e0000000000006044820152606401610a75565b6001600160a01b0381166000908152600b60209081526040808320805460ff19166001179055600a82529182902084905581516060810190925260268083526116e19285929091906122e1908301396001600160a01b0384166000908152600860205260409020549190611f00565b6001600160a01b0380831660009081526008602052604080822093909355600e54909116815220546117139083611f38565b600e546001600160a01b03908116600090815260086020908152604080832094909455918416808252600d909252828120429081905592518592917fc86d5fa4f4fde464d78e1587300661a7fd3f9699137c8f5e75ca9ffb8f648e6791a45050565b6001600160a01b0381166000908152600a60205260408120548190611799906108d4565b905060006117a684611342565b90508042106117b6575092915050565b60006117c3426064611d21565b905060006117d18284611f2c565b905060006117df8583611d21565b905060006117ee826064611f2c565b98975050505050505050565b336000818152600c602052604090205460ff161561185a5760405162461bcd60e51b815260206004820152601e60248201527f596f75206861766520616c726561647920556e5374616b6564204f52422e00006044820152606401610a75565b6001600160a01b0381166000908152600c60205260409020805460ff19166001179055600e54600160a01b900460ff16611916576017546001600160a01b0382166000908152600d60205260409020546118b491906121f9565b42116119165760405162461bcd60e51b815260206004820152602b60248201527f596f752063616e6e6f7420756e7374616b652c20697420686173206e6f74206260448201526a32b2b71019903230bcb99760a91b6064820152608401610a75565b61197a600a6000836001600160a01b03166001600160a01b03168152602001908152602001600020546040518060600160405280602681526020016122e160269139600e546001600160a01b03166000908152600860205260409020549190611f00565b600e546001600160a01b039081166000908152600860208181526040808420959095559285168252600a835283822054925291909120546119ba91611f38565b6001600160a01b0382166000908152600860205260408120919091556119df82611775565b90506119eb8282611f44565b6001600160a01b0382166000818152600a6020526040808220829055514292917f6247d026a95f976a66a54d5bcd9789ddbf15caf086c935042d7d39a373be54ef91a35050565b60006108cb33846109bb85604051806060016040528060258152602001612307602591393360009081526009602090815260408083206001600160a01b038d1684529091529020549190611f00565b60006108cb338484611d2d565b6000546001600160a01b03163314611ab85760405162461bcd60e51b8152600401610a75906121c4565b6001600160a01b038116611b1d5760405162461bcd60e51b815260206004820152602660248201527f4f776e61626c653a206e6577206f776e657220697320746865207a65726f206160448201526564647265737360d01b6064820152608401610a75565b600080546040516001600160a01b03808516939216917f8be0079c531659141344cd1fd0a4f28419497f9722a3daafe3b4186f6b6457e091a3600080546001600160a01b0319166001600160a01b0392909216919091179055565b60006108e98284612250565b60155460ff16611bfc5760405162461bcd60e51b815260206004820152603a60248201527f417070726f766573206d75737420626520656e61626c6564206669727374206160448201527f66746572207468652050726553616c6520697320656e6465642e0000000000006064820152608401610a75565b6001600160a01b038316611c5e5760405162461bcd60e51b8152602060048201526024808201527f42455032303a20617070726f76652066726f6d20746865207a65726f206164646044820152637265737360e01b6064820152608401610a75565b6001600160a01b038216611cbf5760405162461bcd60e51b815260206004820152602260248201527f42455032303a20617070726f766520746f20746865207a65726f206164647265604482015261737360f01b6064820152608401610a75565b6001600160a01b0383811660008181526009602090815260408083209487168084529482529182902085905590518481527f8c5be1e5ebec7d5bd14f71427d1e84f3dd0314c0f7b2291e5b200ac8c7c3b92591015b60405180910390a3505050565b60006108e98284612231565b6001600160a01b038316611d915760405162461bcd60e51b815260206004820152602560248201527f42455032303a207472616e736665722066726f6d20746865207a65726f206164604482015264647265737360d81b6064820152608401610a75565b6001600160a01b038216611df35760405162461bcd60e51b815260206004820152602360248201527f42455032303a207472616e7366657220746f20746865207a65726f206164647260448201526265737360e81b6064820152608401610a75565b80611e405760405162461bcd60e51b815260206004820152601c60248201527f42455032303a207472616e7366657220616d6f756e74207761732030000000006044820152606401610a75565b611e7d816040518060600160405280602681526020016122e1602691396001600160a01b0386166000908152600860205260409020549190611f00565b6001600160a01b038085166000908152600860205260408082209390935590841681522054611eac9082611f38565b6001600160a01b0380841660008181526008602052604090819020939093559151908516907fddf252ad1be2c89b69c2b068fc378daa952ba7f163c4a11628f55a4df523b3ef90611d149085815260200190565b60008184841115611f245760405162461bcd60e51b8152600401610a759190612171565b505050900390565b60006108e98284612211565b60006108e982846121f9565b6001600160a01b038216611f9a5760405162461bcd60e51b815260206004820152601f60248201527f42455032303a206d696e7420746f20746865207a65726f2061646472657373006044820152606401610a75565b600754611fa79082611f38565b6007556001600160a01b038216600090815260086020526040902054611fcd9082611f38565b6001600160a01b0383166000818152600860205260408082209390935591519091907fddf252ad1be2c89b69c2b068fc378daa952ba7f163c4a11628f55a4df523b3ef9061201e9085815260200190565b60405180910390a360405181906001600160a01b038416907f4c19eb630ef41bcd82b886369c61b97531fd44827f816b61f74655f69534931b90600090a35050565b80356001600160a01b038116811461207757600080fd5b919050565b60006020828403121561208d578081fd5b6108e982612060565b600080604083850312156120a8578081fd5b6120b183612060565b91506120bf60208401612060565b90509250929050565b6000806000606084860312156120dc578081fd5b6120e584612060565b92506120f360208501612060565b9150604084013590509250925092565b60008060408385031215612115578182fd5b61211e83612060565b946020939093013593505050565b60006020828403121561213d578081fd5b5035919050565b600080600060608486031215612158578283fd5b8351925060208401519150604084015190509250925092565b6000602080835283518082850152825b8181101561219d57858101830151858201604001528201612181565b818111156121ae5783604083870101525b50601f01601f1916929092016040019392505050565b6020808252818101527f4f776e61626c653a2063616c6c6572206973206e6f7420746865206f776e6572604082015260600190565b6000821982111561220c5761220c6122a2565b500190565b60008261222c57634e487b7160e01b81526012600452602481fd5b500490565b600081600019048311821515161561224b5761224b6122a2565b500290565b600082821015612262576122626122a2565b500390565b600181811c9082168061227b57607f821691505b6020821081141561229c57634e487b7160e01b600052602260045260246000fd5b50919050565b634e487b7160e01b600052601160045260246000fdfe42455032303a207472616e7366657220616d6f756e74206578636565647320616c6c6f77616e636542455032303a207472616e7366657220616d6f756e7420657863656564732062616c616e636542455032303a2064656372656173656420616c6c6f77616e63652062656c6f77207a65726fa2646970667358221220a4e00fceedf8eb285fdda71a591992f2d7e700ce602ba6f92a1366893443c9fd64736f6c634300080400338be0079c531659141344cd1fd0a4f28419497f9722a3daafe3b4186f6b6457e0",
  "linkReferences": {},
  "deployedLinkReferences": {}
}